{
  "contractName": "Prescriptions",
  "abi": [
    {
      "inputs": [],
      "payable": false,
      "stateMutability": "nonpayable",
      "type": "constructor"
    },
    {
      "anonymous": false,
      "inputs": [
        {
          "indexed": false,
          "internalType": "uint256",
          "name": "id",
          "type": "uint256"
        },
        {
          "indexed": false,
          "internalType": "uint256",
          "name": "doctorID",
          "type": "uint256"
        },
        {
          "indexed": false,
          "internalType": "uint256",
          "name": "patientID",
          "type": "uint256"
        },
        {
          "indexed": false,
          "internalType": "string",
          "name": "namprescriptionPDF",
          "type": "string"
        }
      ],
      "name": "PrescriptionCreated",
      "type": "event"
    },
    {
      "constant": true,
      "inputs": [],
      "name": "PrescriptionCount",
      "outputs": [
        {
          "internalType": "uint256",
          "name": "",
          "type": "uint256"
        }
      ],
      "payable": false,
      "stateMutability": "view",
      "type": "function"
    },
    {
      "constant": true,
      "inputs": [
        {
          "internalType": "uint256",
          "name": "",
          "type": "uint256"
        }
      ],
      "name": "prescriptions",
      "outputs": [
        {
          "internalType": "uint256",
          "name": "id",
          "type": "uint256"
        },
        {
          "internalType": "uint256",
          "name": "doctorID",
          "type": "uint256"
        },
        {
          "internalType": "uint256",
          "name": "patientID",
          "type": "uint256"
        },
        {
          "internalType": "string",
          "name": "prescriptionPDF",
          "type": "string"
        }
      ],
      "payable": false,
      "stateMutability": "view",
      "type": "function"
    },
    {
      "constant": false,
      "inputs": [
        {
          "internalType": "uint256",
          "name": "_doctorID",
          "type": "uint256"
        },
        {
          "internalType": "uint256",
          "name": "_patientID",
          "type": "uint256"
        },
        {
          "internalType": "string",
          "name": "_prescriptionPDF",
          "type": "string"
        }
      ],
      "name": "createPrescription",
      "outputs": [],
      "payable": false,
      "stateMutability": "nonpayable",
      "type": "function"
    }
  ],
  "bytecode": "0x60806040526000805534801561001457600080fd5b506100496001806040518060400160405280600a8152602001693430b9b42337b928222360b11b81525061004e60201b60201c565b61020a565b60008054600190810180835560408051608081018252828152602080820189815282840189815260608401898152958852868352939096208251815595519486019490945590516002850155905180519193926100b39260038501929091019061016f565b509050507f64a649daa844db618f07ce582f34c3363838efabe6514f49548789f8c29de62e6000548484846040518085815260200184815260200183815260200180602001828103825283818151815260200191508051906020019080838360005b8381101561012d578181015183820152602001610115565b50505050905090810190601f16801561015a5780820380516001836020036101000a031916815260200191505b509550505050505060405180910390a1505050565b828054600181600116156101000203166002900490600052602060002090601f016020900481019282601f106101b057805160ff19168380011785556101dd565b828001600101855582156101dd579182015b828111156101dd5782518255916020019190600101906101c2565b506101e99291506101ed565b5090565b61020791905b808211156101e957600081556001016101f3565b90565b610463806102196000396000f3fe608060405234801561001057600080fd5b50600436106100415760003560e01c806313da82391461004657806331dfc91b1461006057806384c7e7741461010a575b600080fd5b61004e6101be565b60408051918252519081900360200190f35b61007d6004803603602081101561007657600080fd5b50356101c4565b6040518085815260200184815260200183815260200180602001828103825283818151815260200191508051906020019080838360005b838110156100cc5781810151838201526020016100b4565b50505050905090810190601f1680156100f95780820380516001836020036101000a031916815260200191505b509550505050505060405180910390f35b6101bc6004803603606081101561012057600080fd5b81359160208101359181019060608101604082013564010000000081111561014757600080fd5b82018360208201111561015957600080fd5b8035906020019184600183028401116401000000008311171561017b57600080fd5b91908080601f016020809104026020016040519081016040528093929190818152602001838380828437600092019190915250929550610272945050505050565b005b60005481565b60016020818152600092835260409283902080548184015460028084015460038501805489519881161561010002600019011692909204601f81018790048702880187019098528787529296919592949091908301828280156102685780601f1061023d57610100808354040283529160200191610268565b820191906000526020600020905b81548152906001019060200180831161024b57829003601f168201915b5050505050905084565b60008054600190810180835560408051608081018252828152602080820189815282840189815260608401898152958852868352939096208251815595519486019490945590516002850155905180519193926102d792600385019290910190610393565b509050507f64a649daa844db618f07ce582f34c3363838efabe6514f49548789f8c29de62e6000548484846040518085815260200184815260200183815260200180602001828103825283818151815260200191508051906020019080838360005b83811015610351578181015183820152602001610339565b50505050905090810190601f16801561037e5780820380516001836020036101000a031916815260200191505b509550505050505060405180910390a1505050565b828054600181600116156101000203166002900490600052602060002090601f016020900481019282601f106103d457805160ff1916838001178555610401565b82800160010185558215610401579182015b828111156104015782518255916020019190600101906103e6565b5061040d929150610411565b5090565b61042b91905b8082111561040d5760008155600101610417565b9056fea265627a7a7231582017207381ff06a53dcc3d44fb66f28dd8441702fd1a7bdb969402460f7201e52a64736f6c63430005100032",
  "source": "// SPDX-License-Identifier: MIT\npragma solidity >=0.4.21 <0.7.0;\n\ncontract Prescriptions {\n    uint256 public PrescriptionCount = 0;\n    // Patients Model\n    struct Prescription {\n        uint256 id;\n        uint256 doctorID;\n        uint256 patientID;\n        string prescriptionPDF;\n    }\n\n    mapping(uint256 => Prescription) public prescriptions;\n\n    // Broadcasting when an patient event is created\n    event PrescriptionCreated(uint256 id, uint256 doctorID, uint256 patientID, string namprescriptionPDF);\n\n    // Constructor which initializes default values 1 is for doctorsID\n    constructor() public {\n        createPrescription(1, 1, \"hashForPDF\");\n    }\n\n    // A funnction to create patients\n\n    function createPrescription(uint256 _doctorID, uint256 _patientID, string memory _prescriptionPDF) public {\n        PrescriptionCount++;\n        prescriptions[PrescriptionCount] = Prescription(\n            PrescriptionCount,\n            _doctorID,\n            _patientID,\n            _prescriptionPDF\n        );\n        emit PrescriptionCreated(PrescriptionCount, _doctorID, _patientID, _prescriptionPDF);\n    }\n}\n",
  "sourcePath": "/Users/ibneetkaur/Desktop/medRec/contracts/Prescriptions.sol",
  "compiler": {
    "name": "solc",
    "version": "0.5.16+commit.9c3226ce.Emscripten.clang"
  },
  "schemaVersion": "3.2.5",
  "updatedAt": "2020-10-26T06:18:25.105Z",
  "networkType": "ethereum",
  "devdoc": {
    "methods": {}
  },
  "userdoc": {
    "methods": {}
  }
}